S01C0000757365725F626F6172645F6C65645F626C696E6B2E73726563DF
S214080000B0250720D1020800CF020800CF0208005A
S214080010CF020800CF020800CF0208000000000048
S214080020000000000000000000000000CF020800EA
S214080030CF02080000000000CF020800CF02080028
S214080040CF020800CF020800CF020800CF0208003F
S214080050CF020800CF020800CF020800CF0208002F
S214080060CF020800CF02080000000000CF020800F8
S214080070CF020800CF020800CF02080000000000E8
S21408008000000000CF020800CF020800CF020800D8
S214080090CF020800CF020800CF020800CF020800EF
S2140800A0CF02080000000000CF020800CF020800B8
S2140800B0CF020800CF020800CF020800CF020800CF
S2140800C0CF020800CF020800CF020800CF020800BF
S2140800D0CF020800CF020800CF020800CF020800AF
S2140800E0CF020800CF020800CF020800CF0208009F
S2140800F0CF02080010B5054C237833B9044B13B16A
S2140801000448AFF300800123237010BD6C05072058
S21408011000000000840608000C4B43B10C4810B5DC
S2140801200C49AFF300800C48036823B910BD0A4891
S214080130036833B97047094B002BF7D0BDE8104069
S2140801401847064B002BF5D0184700BF00000000E4
S21408015084060800700507208406080000000000D2
S21408016010B50E480E4B98473E2100200D4B984779
S2140801700D4CA0470028FCD00C4B98470C4A0D4B5A
S2140801809A620D4CA0470028FCD010200B4B9847CD
S2140801900B4B98470148024B984710BD00BD010518
S2140801A0B1000720290208007D0208008D02080019
S2140801B0013F0D2000060E409D020800C5010800FC
S2140801C069030800174A136B23F07003184310637B
S2140801D0936E13F0080F0AD14FF4006311498A6E24
S2140801E012F0080F03D1013BF9D1012070470D4AE0
S2140801F0136B23F0030343F002031363936E13F0A9
S214080200080F0AD14FF4006306498A6E12F0080FE9
S21408021005D1013BF9D10120704700207047002026
S214080220704700BF00060E40C8B9114A136A090293
S21408023089B223F45C1323F0030343F45C1343F0FE
S21408024001030B431362936E13F0010FFBD0084AA9
S214080250136A43F09B7343F4803313627047044970
S2140802600B6A044A1A40044B13430B62704700BFDC
S21408027000060E40FCFFC8FE02003701024B986ECF
S21408028000F48030704700BF00060E404FF0005262
S214080290014B9A62704700BF00060E40024B986EEC
S2140802A000F00200704700BF00060E4000F07F0016
S2140802B0054BC3F80C01D3F80C2142F01022C3F802
S2140802C00C210020704700BF00060E407047FEE76E
S2140802D008B51C4B1C4A9A4210D01C4B194A9A4225
S2140802E00CD2013B9B1A23F003030433134416492C
S2140802F051F8040B42F8040B9A42F9D1144B154AEC
S2140803009A420AD2013B9B1A23F003030433134490
S214080310002142F8041B9342FBD10F4B23F06042A6
S21408032022F07F020D498A6003F16043B3F5801F0F
S21408033003D28B6843F000538B60094B9847094BF0
S2140803409847FEE700000720840608006C0507208B
S214080350AC0507206C0507200000080000ED00E04B
S214080360ED040800810408003D4B1B6B03F00303F3
S214080370032B0ED8DFE803F0021C3838394B5B69CC
S21408038013F0800F14BF4FF400424FF4FA42364B76
S2140803901A60334B1B6B03F07003702B57D0304B2F
S2140803A01A6B3149C2F302120B68D3400B607047D0
S2140803B02B4B1B6A13F0807F03D02C4A2A4B1A60FB
S2140803C0E7E72B4A284B1A60254B1B6A03F0700395
S2140803D0102B05D0202BDCD1244A234B1A60D8E7F3
S2140803E0244A214B1A60D4E71D4B1B6A13F0807F02
S2140803F00CD01E4A1C4B1A60194B1B6B03F00303E8
S214080400022B16D01C4A184B1A60C2E7184A164B1D
S2140804101A60134B1B6A03F07003102B05D0202BB1
S214080420EAD1124A104B1A60E6E7124A0E4B1A60D7
S214080430E2E70B4A916A926A0B48C1F30A410368DD
S21408044001FB0333D2B2B3FBF2F30360A1E7064A1B
S21408045013680A49A1FB03135B081360704700BFC3
S21408046000060E40101A0E4038010720001BB70081
S21408047000093D0000127A00001C4E0EABAAAAAA7C
S21408048008B5134B9847134B98474FF40042124B46
S2140804905A600B20114CA0470C20A0470D20A047FF
S2140804A00E20A0470E4B4FF000621A61C3F8A0203A
S2140804B01A631C460B4E0C4DE36B13F0006F4FF09F
S2140804C0006314BF636323633046A847F4E700BF9E
S2140804D061010800CD020800501A0E40AD0208005F
S2140804E000100E40808D5B000100072070B50F4E8F
S2140804F00F4D761BB61018BF002405D0013455F8EA
S214080500043B9847A642F9D10A4E0B4D00F0A8F8CE
S214080510761BB61018BF002406D0013455F8043BE5
S2140805209847A642F9D170BD70BD00BF6C0608009A
S2140805306C060800740608006C060800024B13B127
S214080540024800F005B87047000000005D05080086
S214080550002301461A46184600F01EB838B50A4C5D
S2140805600A4D641BA4100AD004F18043013B05EB36
S2140805708305013C55F804399847002CF9D1BDE8A5
S214080580384000F077B800BF8406080080060800E8
S214080590704700BF704700BF2DE9F8432C4D06464C
S2140805A0286898460F469146FFF7F2FF294B1C68C5
S2140805B0D4F84831002B3ED05A681F2A1CDC02F1BA
S2140805C0010E76B1012103EB8204C4F88890D3F8B3
S2140805D0880191400843022EC3F88801C4F80881B0
S2140805E023D00232C3F804E0286843F82270FFF7E5
S2140805F0D1FF0020BDE8F883174B0BB34FF4C87043
S214080600AFF300800346D8B10020D4F848114FF065
S214080610010E586019600246C4F84831C3F88801CC
S214080620C3F88C01002EDCD0CCE7D3F88C0101434C
S214080630C3F88C11D5E704F5A673C4F84831BBE7B0
S2140806402868FFF7A7FF4FF0FF30BDE8F88300BF24
S214080650680507205C060800000000004001072027
S214080660F8B500BFF8BC08BC9E4670473D050800B4
S21408067019010800F8B500BFF8BC08BC9E467047CC
S208080680F50008006C
S214080684BFF35F8F0138FBD1704700004FF48063D7
S214080694204A136002F5007213601F4B1B6A13F09E
S2140806A4807F07D11D4A1C4B1A621A46936E13F0B4
S2140806B4010FFBD01A4A184B1A621A46936E13F4A3
S2140806C4803FFBD0144A136B23F0030343F0010363
S2140806D41363936E13F0080FFBD0124A0E4B9A62FC
S2140806E41A46936E13F0020FFBD011220A4B1A63B4
S2140806F41A46936E13F0080FFBD01222064B1A63A1
S2140807041A46936E13F0080FFBD0074A074B1A6075
S214080714704700BF000A0E4000060E40090837005E
S21408072409083701013F0D2000BD010538010720DF
S2140807341B4B984215D91B4B984219D91A4B984209
S2140807441ED91A4B984223D9194B984294BF4FF492
S21408075480634FF4A063174A136002F500721360AF
S21408076470470023134A136002F50072136070473B
S2140807744FF480730F4A136002F5007213607047D3
S2140807844FF400730B4A136002F500721360704747
S2140807944FF44073074A136002F5007213607047FB
S2140807A4BFEA21017FF0FA02FF8FD003FFB3C40427
S2140807B47F4A5D05000A0E4000093D00000000005F
S2140807C4000000002C04072094040720FC040720DB
S2140807D40000000000000000000000000000000008
S2140807E400000000000000000000000000000000F8
S2140807F400000000000000000000000000000000E8
S21408080400000000000000000000000000000000D7
S21408081400000000000000000000000000000000C7
S21408082400000000000000000000000000000000B7
S21408083400000000000000000000000000000000A7
S2140808440000000000000000000000000000000097
S2140808540000000000000000000000000000000087
S2140808640000000000000000010000000000000076
S2140808740E33CDAB34126DE6ECDE05000B0000003B
S2140808840000000000000000000000000000000057
S2140808940000000000000000000000000000000047
S2140808A40000000000000000000000000000000037
S2140808B40000000000000000000000000000000027
S210080BE400000000000000008805072044
S8040802D120
